{
  "address": "0x21ff827193D6Fc3F6778784C38489BED2547f43E",
  "abi": [
    {
      "inputs": [
        {
          "internalType": "address",
          "name": "winnerAddress",
          "type": "address"
        }
      ],
      "stateMutability": "nonpayable",
      "type": "constructor"
    },
    {
      "inputs": [],
      "name": "callAttempt",
      "outputs": [],
      "stateMutability": "nonpayable",
      "type": "function"
    }
  ],
  "transactionHash": "0x4c6ce8693ecb98c556503774621b5b57b02b3ca490a72b13fb3c049c1a8c13ae",
  "args": [
    "0xcF469d3BEB3Fc24cEe979eFf83BE33ed50988502"
  ],
  "numDeployments": 2,
  "solcInputHash": "75f8009ead0f295d7d3db93b3d8edf52",
  "bytecode": "0x60a060405234801561001057600080fd5b506040516103dd3803806103dd833981810160405281019061003291906100cf565b8073ffffffffffffffffffffffffffffffffffffffff1660808173ffffffffffffffffffffffffffffffffffffffff1681525050506100fc565b600080fd5b600073ffffffffffffffffffffffffffffffffffffffff82169050919050565b600061009c82610071565b9050919050565b6100ac81610091565b81146100b757600080fd5b50565b6000815190506100c9816100a3565b92915050565b6000602082840312156100e5576100e461006c565b5b60006100f3848285016100ba565b91505092915050565b6080516102c76101166000396000603e01526102c76000f3fe608060405234801561001057600080fd5b506004361061002b5760003560e01c806327265b4314610030575b600080fd5b61003861003a565b005b60007f000000000000000000000000000000000000000000000000000000000000000073ffffffffffffffffffffffffffffffffffffffff166040516024016040516020818303038152906040527f732b7a8d000000000000000000000000000000000000000000000000000000007bffffffffffffffffffffffffffffffffffffffffffffffffffffffff19166020820180517bffffffffffffffffffffffffffffffffffffffffffffffffffffffff838183161783525050505060405161010391906101fd565b6000604051808303816000865af19150503d8060008114610140576040519150601f19603f3d011682016040523d82523d6000602084013e610145565b606091505b5050905080610189576040517f08c379a000000000000000000000000000000000000000000000000000000000815260040161018090610271565b60405180910390fd5b50565b600081519050919050565b600081905092915050565b60005b838110156101c05780820151818401526020810190506101a5565b60008484015250505050565b60006101d78261018c565b6101e18185610197565b93506101f18185602086016101a2565b80840191505092915050565b600061020982846101cc565b915081905092915050565b600082825260208201905092915050565b7f46756e6374696f6e206973206e6f742063616c6c656421000000000000000000600082015250565b600061025b601783610214565b915061026682610225565b602082019050919050565b6000602082019050818103600083015261028a8161024e565b905091905056fea26469706673582212204cd4916753e15623e3ee72e17ff62ec632324c7e748ec5f00e81230eac353d5e64736f6c63430008100033",
  "devdoc": {
    "kind": "dev",
    "methods": {},
    "version": 1
  },
  "userdoc": {
    "kind": "user",
    "methods": {},
    "version": 1
  },
  "storageLayout": {
    "storage": [],
    "types": null
  }
}